{"abi":[{"type":"constructor","inputs":[{"name":"_addressProvider","type":"address","internalType":"address"}],"stateMutability":"nonpayable"},{"type":"function","name":"ADDRESSES_PROVIDER","inputs":[],"outputs":[{"name":"","type":"address","internalType":"contract IPoolAddressesProvider"}],"stateMutability":"view"},{"type":"function","name":"POOL","inputs":[],"outputs":[{"name":"","type":"address","internalType":"contract IPool"}],"stateMutability":"view"},{"type":"function","name":"executeOperation","inputs":[{"name":"asset","type":"address","internalType":"address"},{"name":"amount","type":"uint256","internalType":"uint256"},{"name":"premium","type":"uint256","internalType":"uint256"},{"name":"initiator","type":"address","internalType":"address"},{"name":"params","type":"bytes","internalType":"bytes"}],"outputs":[{"name":"","type":"bool","internalType":"bool"}],"stateMutability":"nonpayable"},{"type":"function","name":"iniciarArbitraje","inputs":[{"name":"token","type":"address","internalType":"address"},{"name":"cantidad","type":"uint256","internalType":"uint256"}],"outputs":[],"stateMutability":"nonpayable"},{"type":"function","name":"owner","inputs":[],"outputs":[{"name":"","type":"address","internalType":"address"}],"stateMutability":"view"},{"type":"function","name":"sushiRouter","inputs":[],"outputs":[{"name":"","type":"address","internalType":"contract IUniswapV2Router"}],"stateMutability":"view"},{"type":"function","name":"uniswapRouter","inputs":[],"outputs":[{"name":"","type":"address","internalType":"contract ISwapRouter"}],"stateMutability":"view"}],"bytecode":{"object":"0x60c060405234801561000f575f5ffd5b506040516113ef3803806113ef833981810160405281019061003191906101aa565b808073ffffffffffffffffffffffffffffffffffffffff1660808173ffffffffffffffffffffffffffffffffffffffff16815250508073ffffffffffffffffffffffffffffffffffffffff1663026b1d5f6040518163ffffffff1660e01b8152600401602060405180830381865afa1580156100af573d5f5f3e3d5ffd5b505050506040513d601f19601f820116820180604052508101906100d391906101aa565b73ffffffffffffffffffffffffffffffffffffffff1660a08173ffffffffffffffffffffffffffffffffffffffff168152505050335f5f6101000a81548173ffffffffffffffffffffffffffffffffffffffff021916908373ffffffffffffffffffffffffffffffffffffffff160217905550506101d5565b5f5ffd5b5f73ffffffffffffffffffffffffffffffffffffffff82169050919050565b5f61017982610150565b9050919050565b6101898161016f565b8114610193575f5ffd5b50565b5f815190506101a481610180565b92915050565b5f602082840312156101bf576101be61014c565b5b5f6101cc84828501610196565b91505092915050565b60805160a0516111eb6102045f395f81816105df015281816106a3015261077901525f61016301526111eb5ff3fe608060405234801561000f575f5ffd5b506004361061007b575f3560e01c8063735de9f711610059578063735de9f7146100eb5780637535d246146101095780638da5cb5b146101275780639170c58a146101455761007b565b80630542975c1461007f5780631b11d0ff1461009d5780636d13582c146100cd575b5f5ffd5b610087610161565b6040516100949190610881565b60405180910390f35b6100b760048036038101906100b2919061097a565b610185565b6040516100c49190610a2a565b60405180910390f35b6100d5610671565b6040516100e29190610a63565b60405180910390f35b6100f3610689565b6040516101009190610a9c565b60405180910390f35b6101116106a1565b60405161011e9190610ad5565b60405180910390f35b61012f6106c5565b60405161013c9190610afd565b60405180910390f35b61015f600480360381019061015a9190610b16565b6106e9565b005b7f000000000000000000000000000000000000000000000000000000000000000081565b5f8673ffffffffffffffffffffffffffffffffffffffff1663095ea7b373e592427a0aece92de3edee1f18e0157c05861564886040518363ffffffff1660e01b81526004016101d5929190610b63565b6020604051808303815f875af11580156101f1573d5f5f3e3d5ffd5b505050506040513d601f19601f820116820180604052508101906102159190610bb4565b505f6040518061010001604052808973ffffffffffffffffffffffffffffffffffffffff16815260200173c02aaa39b223fe8d0a0e5c4f27ead9083c756cc273ffffffffffffffffffffffffffffffffffffffff168152602001610bb862ffffff1681526020013073ffffffffffffffffffffffffffffffffffffffff1681526020014281526020018881526020015f81526020015f73ffffffffffffffffffffffffffffffffffffffff1681525090505f73e592427a0aece92de3edee1f18e0157c0586156473ffffffffffffffffffffffffffffffffffffffff1663414bf389836040518263ffffffff1660e01b81526004016103149190610cc9565b6020604051808303815f875af1158015610330573d5f5f3e3d5ffd5b505050506040513d601f19601f820116820180604052508101906103549190610cf7565b905073c02aaa39b223fe8d0a0e5c4f27ead9083c756cc273ffffffffffffffffffffffffffffffffffffffff1663095ea7b373d9e1ce17f2641f24ae83637ab66a2cca9c378b9f836040518363ffffffff1660e01b81526004016103b9929190610b63565b6020604051808303815f875af11580156103d5573d5f5f3e3d5ffd5b505050506040513d601f19601f820116820180604052508101906103f99190610bb4565b505f600267ffffffffffffffff81111561041657610415610d22565b5b6040519080825280602002602001820160405280156104445781602001602082028036833780820191505090505b50905073c02aaa39b223fe8d0a0e5c4f27ead9083c756cc2815f8151811061046f5761046e610d4f565b5b602002602001019073ffffffffffffffffffffffffffffffffffffffff16908173ffffffffffffffffffffffffffffffffffffffff168152505089816001815181106104be576104bd610d4f565b5b602002602001019073ffffffffffffffffffffffffffffffffffffffff16908173ffffffffffffffffffffffffffffffffffffffff16815250505f73d9e1ce17f2641f24ae83637ab66a2cca9c378b9f73ffffffffffffffffffffffffffffffffffffffff166338ed1739845f8530426040518663ffffffff1660e01b815260040161054e959493929190610e5d565b5f604051808303815f875af1158015610569573d5f5f3e3d5ffd5b505050506040513d5f823e3d601f19601f820116820180604052508101906105919190610fd0565b90505f816001815181106105a8576105a7610d4f565b5b602002602001015190505f8a8c6105bf9190611044565b90508c73ffffffffffffffffffffffffffffffffffffffff1663095ea7b37f0000000000000000000000000000000000000000000000000000000000000000836040518363ffffffff1660e01b815260040161061c929190610b63565b6020604051808303815f875af1158015610638573d5f5f3e3d5ffd5b505050506040513d601f19601f8201168201806040525081019061065c9190610bb4565b50600196505050505050509695505050505050565b73d9e1ce17f2641f24ae83637ab66a2cca9c378b9f81565b73e592427a0aece92de3edee1f18e0157c0586156481565b7f000000000000000000000000000000000000000000000000000000000000000081565b5f5f9054906101000a900473ffffffffffffffffffffffffffffffffffffffff1681565b5f5f9054906101000a900473ffffffffffffffffffffffffffffffffffffffff1673ffffffffffffffffffffffffffffffffffffffff163373ffffffffffffffffffffffffffffffffffffffff1614610777576040517f08c379a000000000000000000000000000000000000000000000000000000000815260040161076e906110d1565b60405180910390fd5b7f000000000000000000000000000000000000000000000000000000000000000073ffffffffffffffffffffffffffffffffffffffff166342b0b77c3084845f6040518563ffffffff1660e01b81526004016107d6949392919061115f565b5f604051808303815f87803b1580156107ed575f5ffd5b505af11580156107ff573d5f5f3e3d5ffd5b505050505050565b5f73ffffffffffffffffffffffffffffffffffffffff82169050919050565b5f819050919050565b5f61084961084461083f84610807565b610826565b610807565b9050919050565b5f61085a8261082f565b9050919050565b5f61086b82610850565b9050919050565b61087b81610861565b82525050565b5f6020820190506108945f830184610872565b92915050565b5f604051905090565b5f5ffd5b5f5ffd5b5f6108b582610807565b9050919050565b6108c5816108ab565b81146108cf575f5ffd5b50565b5f813590506108e0816108bc565b92915050565b5f819050919050565b6108f8816108e6565b8114610902575f5ffd5b50565b5f81359050610913816108ef565b92915050565b5f5ffd5b5f5ffd5b5f5ffd5b5f5f83601f84011261093a57610939610919565b5b8235905067ffffffffffffffff8111156109575761095661091d565b5b60208301915083600182028301111561097357610972610921565b5b9250929050565b5f5f5f5f5f5f60a08789031215610994576109936108a3565b5b5f6109a189828a016108d2565b96505060206109b289828a01610905565b95505060406109c389828a01610905565b94505060606109d489828a016108d2565b935050608087013567ffffffffffffffff8111156109f5576109f46108a7565b5b610a0189828a01610925565b92509250509295509295509295565b5f8115159050919050565b610a2481610a10565b82525050565b5f602082019050610a3d5f830184610a1b565b92915050565b5f610a4d82610850565b9050919050565b610a5d81610a43565b82525050565b5f602082019050610a765f830184610a54565b92915050565b5f610a8682610850565b9050919050565b610a9681610a7c565b82525050565b5f602082019050610aaf5f830184610a8d565b92915050565b5f610abf82610850565b9050919050565b610acf81610ab5565b82525050565b5f602082019050610ae85f830184610ac6565b92915050565b610af7816108ab565b82525050565b5f602082019050610b105f830184610aee565b92915050565b5f5f60408385031215610b2c57610b2b6108a3565b5b5f610b39858286016108d2565b9250506020610b4a85828601610905565b9150509250929050565b610b5d816108e6565b82525050565b5f604082019050610b765f830185610aee565b610b836020830184610b54565b9392505050565b610b9381610a10565b8114610b9d575f5ffd5b50565b5f81519050610bae81610b8a565b92915050565b5f60208284031215610bc957610bc86108a3565b5b5f610bd684828501610ba0565b91505092915050565b610be8816108ab565b82525050565b5f62ffffff82169050919050565b610c0581610bee565b82525050565b610c14816108e6565b82525050565b610c2381610807565b82525050565b61010082015f820151610c3e5f850182610bdf565b506020820151610c516020850182610bdf565b506040820151610c646040850182610bfc565b506060820151610c776060850182610bdf565b506080820151610c8a6080850182610c0b565b5060a0820151610c9d60a0850182610c0b565b5060c0820151610cb060c0850182610c0b565b5060e0820151610cc360e0850182610c1a565b50505050565b5f61010082019050610cdd5f830184610c29565b92915050565b5f81519050610cf1816108ef565b92915050565b5f60208284031215610d0c57610d0b6108a3565b5b5f610d1984828501610ce3565b91505092915050565b7f4e487b71000000000000000000000000000000000000000000000000000000005f52604160045260245ffd5b7f4e487b71000000000000000000000000000000000000000000000000000000005f52603260045260245ffd5b5f819050919050565b5f610d9f610d9a610d9584610d7c565b610826565b6108e6565b9050919050565b610daf81610d85565b82525050565b5f81519050919050565b5f82825260208201905092915050565b5f819050602082019050919050565b5f610de98383610bdf565b60208301905092915050565b5f602082019050919050565b5f610e0b82610db5565b610e158185610dbf565b9350610e2083610dcf565b805f5b83811015610e50578151610e378882610dde565b9750610e4283610df5565b925050600181019050610e23565b5085935050505092915050565b5f60a082019050610e705f830188610b54565b610e7d6020830187610da6565b8181036040830152610e8f8186610e01565b9050610e9e6060830185610aee565b610eab6080830184610b54565b9695505050505050565b5f601f19601f8301169050919050565b610ece82610eb5565b810181811067ffffffffffffffff82111715610eed57610eec610d22565b5b80604052505050565b5f610eff61089a565b9050610f0b8282610ec5565b919050565b5f67ffffffffffffffff821115610f2a57610f29610d22565b5b602082029050602081019050919050565b5f610f4d610f4884610f10565b610ef6565b90508083825260208201905060208402830185811115610f7057610f6f610921565b5b835b81811015610f995780610f858882610ce3565b845260208401935050602081019050610f72565b5050509392505050565b5f82601f830112610fb757610fb6610919565b5b8151610fc7848260208601610f3b565b91505092915050565b5f60208284031215610fe557610fe46108a3565b5b5f82015167ffffffffffffffff811115611002576110016108a7565b5b61100e84828501610fa3565b91505092915050565b7f4e487b71000000000000000000000000000000000000000000000000000000005f52601160045260245ffd5b5f61104e826108e6565b9150611059836108e6565b925082820190508082111561107157611070611017565b5b92915050565b5f82825260208201905092915050565b7f536f6c6f20656c206a65666520707565646520696e6963696172206573746f005f82015250565b5f6110bb601f83611077565b91506110c682611087565b602082019050919050565b5f6020820190508181035f8301526110e8816110af565b9050919050565b5f82825260208201905092915050565b50565b5f61110d5f836110ef565b9150611118826110ff565b5f82019050919050565b5f61ffff82169050919050565b5f61114961114461113f84610d7c565b610826565b611122565b9050919050565b6111598161112f565b82525050565b5f60a0820190506111725f830187610aee565b61117f6020830186610aee565b61118c6040830185610b54565b818103606083015261119d81611102565b90506111ac6080830184611150565b9594505050505056fea2646970667358221220476e0f8b3bffec346b21635ad2ff663b98f77521c7003057b2609e40188d9bb964736f6c63430008210033","linkReferences":{}},"methodIdentifiers":{"ADDRESSES_PROVIDER()":"0542975c","POOL()":"7535d246","executeOperation(address,uint256,uint256,address,bytes)":"1b11d0ff","iniciarArbitraje(address,uint256)":"9170c58a","owner()":"8da5cb5b","sushiRouter()":"6d13582c","uniswapRouter()":"735de9f7"},"id":11}