{"abi":[{"type":"constructor","inputs":[{"name":"_addressProvider","type":"address","internalType":"address"}],"stateMutability":"nonpayable"},{"type":"function","name":"ADDRESSES_PROVIDER","inputs":[],"outputs":[{"name":"","type":"address","internalType":"contract IPoolAddressesProvider"}],"stateMutability":"view"},{"type":"function","name":"POOL","inputs":[],"outputs":[{"name":"","type":"address","internalType":"contract IPool"}],"stateMutability":"view"},{"type":"function","name":"executeOperation","inputs":[{"name":"asset","type":"address","internalType":"address"},{"name":"amount","type":"uint256","internalType":"uint256"},{"name":"premium","type":"uint256","internalType":"uint256"},{"name":"initiator","type":"address","internalType":"address"},{"name":"params","type":"bytes","internalType":"bytes"}],"outputs":[{"name":"","type":"bool","internalType":"bool"}],"stateMutability":"nonpayable"},{"type":"function","name":"iniciarArbitraje","inputs":[{"name":"token","type":"address","internalType":"address"},{"name":"cantidad","type":"uint256","internalType":"uint256"}],"outputs":[],"stateMutability":"nonpayable"},{"type":"function","name":"owner","inputs":[],"outputs":[{"name":"","type":"address","internalType":"address"}],"stateMutability":"view"},{"type":"function","name":"sushiRouter","inputs":[],"outputs":[{"name":"","type":"address","internalType":"contract IUniswapV2Router"}],"stateMutability":"view"},{"type":"function","name":"uniswapRouter","inputs":[],"outputs":[{"name":"","type":"address","internalType":"contract ISwapRouter"}],"stateMutability":"view"}],"bytecode":{"object":"0x60c060405234801561000f575f5ffd5b506040516112e93803806112e9833981810160405281019061003191906101aa565b808073ffffffffffffffffffffffffffffffffffffffff1660808173ffffffffffffffffffffffffffffffffffffffff16815250508073ffffffffffffffffffffffffffffffffffffffff1663026b1d5f6040518163ffffffff1660e01b8152600401602060405180830381865afa1580156100af573d5f5f3e3d5ffd5b505050506040513d601f19601f820116820180604052508101906100d391906101aa565b73ffffffffffffffffffffffffffffffffffffffff1660a08173ffffffffffffffffffffffffffffffffffffffff168152505050335f5f6101000a81548173ffffffffffffffffffffffffffffffffffffffff021916908373ffffffffffffffffffffffffffffffffffffffff160217905550506101d5565b5f5ffd5b5f73ffffffffffffffffffffffffffffffffffffffff82169050919050565b5f61017982610150565b9050919050565b6101898161016f565b8114610193575f5ffd5b50565b5f815190506101a481610180565b92915050565b5f602082840312156101bf576101be61014c565b5b5f6101cc84828501610196565b91505092915050565b60805160a0516110e56102045f395f81816105df015281816106a301526106eb01525f61016301526110e55ff3fe608060405234801561000f575f5ffd5b506004361061007b575f3560e01c8063735de9f711610059578063735de9f7146100eb5780637535d246146101095780638da5cb5b146101275780639170c58a146101455761007b565b80630542975c1461007f5780631b11d0ff1461009d5780636d13582c146100cd575b5f5ffd5b610087610161565b60405161009491906107f3565b60405180910390f35b6100b760048036038101906100b291906108ec565b610185565b6040516100c4919061099c565b60405180910390f35b6100d5610671565b6040516100e291906109d5565b60405180910390f35b6100f3610689565b6040516101009190610a0e565b60405180910390f35b6101116106a1565b60405161011e9190610a47565b60405180910390f35b61012f6106c5565b60405161013c9190610a6f565b60405180910390f35b61015f600480360381019061015a9190610a88565b6106e9565b005b7f000000000000000000000000000000000000000000000000000000000000000081565b5f8673ffffffffffffffffffffffffffffffffffffffff1663095ea7b373e592427a0aece92de3edee1f18e0157c05861564886040518363ffffffff1660e01b81526004016101d5929190610ad5565b6020604051808303815f875af11580156101f1573d5f5f3e3d5ffd5b505050506040513d601f19601f820116820180604052508101906102159190610b26565b505f6040518061010001604052808973ffffffffffffffffffffffffffffffffffffffff16815260200173c02aaa39b223fe8d0a0e5c4f27ead9083c756cc273ffffffffffffffffffffffffffffffffffffffff168152602001610bb862ffffff1681526020013073ffffffffffffffffffffffffffffffffffffffff1681526020014281526020018881526020015f81526020015f73ffffffffffffffffffffffffffffffffffffffff1681525090505f73e592427a0aece92de3edee1f18e0157c0586156473ffffffffffffffffffffffffffffffffffffffff1663414bf389836040518263ffffffff1660e01b81526004016103149190610c3b565b6020604051808303815f875af1158015610330573d5f5f3e3d5ffd5b505050506040513d601f19601f820116820180604052508101906103549190610c69565b905073c02aaa39b223fe8d0a0e5c4f27ead9083c756cc273ffffffffffffffffffffffffffffffffffffffff1663095ea7b373d9e1ce17f2641f24ae83637ab66a2cca9c378b9f836040518363ffffffff1660e01b81526004016103b9929190610ad5565b6020604051808303815f875af11580156103d5573d5f5f3e3d5ffd5b505050506040513d601f19601f820116820180604052508101906103f99190610b26565b505f600267ffffffffffffffff81111561041657610415610c94565b5b6040519080825280602002602001820160405280156104445781602001602082028036833780820191505090505b50905073c02aaa39b223fe8d0a0e5c4f27ead9083c756cc2815f8151811061046f5761046e610cc1565b5b602002602001019073ffffffffffffffffffffffffffffffffffffffff16908173ffffffffffffffffffffffffffffffffffffffff168152505089816001815181106104be576104bd610cc1565b5b602002602001019073ffffffffffffffffffffffffffffffffffffffff16908173ffffffffffffffffffffffffffffffffffffffff16815250505f73d9e1ce17f2641f24ae83637ab66a2cca9c378b9f73ffffffffffffffffffffffffffffffffffffffff166338ed1739845f8530426040518663ffffffff1660e01b815260040161054e959493929190610dcf565b5f604051808303815f875af1158015610569573d5f5f3e3d5ffd5b505050506040513d5f823e3d601f19601f820116820180604052508101906105919190610f42565b90505f816001815181106105a8576105a7610cc1565b5b602002602001015190505f8a8c6105bf9190610fb6565b90508c73ffffffffffffffffffffffffffffffffffffffff1663095ea7b37f0000000000000000000000000000000000000000000000000000000000000000836040518363ffffffff1660e01b815260040161061c929190610ad5565b6020604051808303815f875af1158015610638573d5f5f3e3d5ffd5b505050506040513d601f19601f8201168201806040525081019061065c9190610b26565b50600196505050505050509695505050505050565b73d9e1ce17f2641f24ae83637ab66a2cca9c378b9f81565b73e592427a0aece92de3edee1f18e0157c0586156481565b7f000000000000000000000000000000000000000000000000000000000000000081565b5f5f9054906101000a900473ffffffffffffffffffffffffffffffffffffffff1681565b7f000000000000000000000000000000000000000000000000000000000000000073ffffffffffffffffffffffffffffffffffffffff166342b0b77c3084845f6040518563ffffffff1660e01b81526004016107489493929190611059565b5f604051808303815f87803b15801561075f575f5ffd5b505af1158015610771573d5f5f3e3d5ffd5b505050505050565b5f73ffffffffffffffffffffffffffffffffffffffff82169050919050565b5f819050919050565b5f6107bb6107b66107b184610779565b610798565b610779565b9050919050565b5f6107cc826107a1565b9050919050565b5f6107dd826107c2565b9050919050565b6107ed816107d3565b82525050565b5f6020820190506108065f8301846107e4565b92915050565b5f604051905090565b5f5ffd5b5f5ffd5b5f61082782610779565b9050919050565b6108378161081d565b8114610841575f5ffd5b50565b5f813590506108528161082e565b92915050565b5f819050919050565b61086a81610858565b8114610874575f5ffd5b50565b5f8135905061088581610861565b92915050565b5f5ffd5b5f5ffd5b5f5ffd5b5f5f83601f8401126108ac576108ab61088b565b5b8235905067ffffffffffffffff8111156108c9576108c861088f565b5b6020830191508360018202830111156108e5576108e4610893565b5b9250929050565b5f5f5f5f5f5f60a0878903121561090657610905610815565b5b5f61091389828a01610844565b965050602061092489828a01610877565b955050604061093589828a01610877565b945050606061094689828a01610844565b935050608087013567ffffffffffffffff81111561096757610966610819565b5b61097389828a01610897565b92509250509295509295509295565b5f8115159050919050565b61099681610982565b82525050565b5f6020820190506109af5f83018461098d565b92915050565b5f6109bf826107c2565b9050919050565b6109cf816109b5565b82525050565b5f6020820190506109e85f8301846109c6565b92915050565b5f6109f8826107c2565b9050919050565b610a08816109ee565b82525050565b5f602082019050610a215f8301846109ff565b92915050565b5f610a31826107c2565b9050919050565b610a4181610a27565b82525050565b5f602082019050610a5a5f830184610a38565b92915050565b610a698161081d565b82525050565b5f602082019050610a825f830184610a60565b92915050565b5f5f60408385031215610a9e57610a9d610815565b5b5f610aab85828601610844565b9250506020610abc85828601610877565b9150509250929050565b610acf81610858565b82525050565b5f604082019050610ae85f830185610a60565b610af56020830184610ac6565b9392505050565b610b0581610982565b8114610b0f575f5ffd5b50565b5f81519050610b2081610afc565b92915050565b5f60208284031215610b3b57610b3a610815565b5b5f610b4884828501610b12565b91505092915050565b610b5a8161081d565b82525050565b5f62ffffff82169050919050565b610b7781610b60565b82525050565b610b8681610858565b82525050565b610b9581610779565b82525050565b61010082015f820151610bb05f850182610b51565b506020820151610bc36020850182610b51565b506040820151610bd66040850182610b6e565b506060820151610be96060850182610b51565b506080820151610bfc6080850182610b7d565b5060a0820151610c0f60a0850182610b7d565b5060c0820151610c2260c0850182610b7d565b5060e0820151610c3560e0850182610b8c565b50505050565b5f61010082019050610c4f5f830184610b9b565b92915050565b5f81519050610c6381610861565b92915050565b5f60208284031215610c7e57610c7d610815565b5b5f610c8b84828501610c55565b91505092915050565b7f4e487b71000000000000000000000000000000000000000000000000000000005f52604160045260245ffd5b7f4e487b71000000000000000000000000000000000000000000000000000000005f52603260045260245ffd5b5f819050919050565b5f610d11610d0c610d0784610cee565b610798565b610858565b9050919050565b610d2181610cf7565b82525050565b5f81519050919050565b5f82825260208201905092915050565b5f819050602082019050919050565b5f610d5b8383610b51565b60208301905092915050565b5f602082019050919050565b5f610d7d82610d27565b610d878185610d31565b9350610d9283610d41565b805f5b83811015610dc2578151610da98882610d50565b9750610db483610d67565b925050600181019050610d95565b5085935050505092915050565b5f60a082019050610de25f830188610ac6565b610def6020830187610d18565b8181036040830152610e018186610d73565b9050610e106060830185610a60565b610e1d6080830184610ac6565b9695505050505050565b5f601f19601f8301169050919050565b610e4082610e27565b810181811067ffffffffffffffff82111715610e5f57610e5e610c94565b5b80604052505050565b5f610e7161080c565b9050610e7d8282610e37565b919050565b5f67ffffffffffffffff821115610e9c57610e9b610c94565b5b602082029050602081019050919050565b5f610ebf610eba84610e82565b610e68565b90508083825260208201905060208402830185811115610ee257610ee1610893565b5b835b81811015610f0b5780610ef78882610c55565b845260208401935050602081019050610ee4565b5050509392505050565b5f82601f830112610f2957610f2861088b565b5b8151610f39848260208601610ead565b91505092915050565b5f60208284031215610f5757610f56610815565b5b5f82015167ffffffffffffffff811115610f7457610f73610819565b5b610f8084828501610f15565b91505092915050565b7f4e487b71000000000000000000000000000000000000000000000000000000005f52601160045260245ffd5b5f610fc082610858565b9150610fcb83610858565b9250828201905080821115610fe357610fe2610f89565b5b92915050565b5f82825260208201905092915050565b50565b5f6110075f83610fe9565b915061101282610ff9565b5f82019050919050565b5f61ffff82169050919050565b5f61104361103e61103984610cee565b610798565b61101c565b9050919050565b61105381611029565b82525050565b5f60a08201905061106c5f830187610a60565b6110796020830186610a60565b6110866040830185610ac6565b818103606083015261109781610ffc565b90506110a6608083018461104a565b9594505050505056fea26469706673582212205babd3ac51e24d17760a806bc8fc496d363c9c8331c4bad03e005a6e039d5cab64736f6c63430008210033","linkReferences":{}},"methodIdentifiers":{"ADDRESSES_PROVIDER()":"0542975c","POOL()":"7535d246","executeOperation(address,uint256,uint256,address,bytes)":"1b11d0ff","iniciarArbitraje(address,uint256)":"9170c58a","owner()":"8da5cb5b","sushiRouter()":"6d13582c","uniswapRouter()":"735de9f7"},"id":11}